:020000040000FA
:10000000020CEFC2AF75FF8075EF028F828E837591
:10001000B7A575B7F12275D4FE2232020022E4F5AD
:0A002000A9223202001A7597A522EA
:10002B00020FA078C7E6601BE4F67F011211D2E441
:10003B0078C5F608F678317C00120CAAAF19120BB2
:10004B00048005120CE54003E4F518227597A522F0
:10005B00020D7BA2AF9200C2AF8F828E83E493FF1F
:10006B00A20092AF228F9722020ECE020218E864F2
:10007B0080F8E933E83360110460F0ED33EC337052
:10008B0009E8FCE9FDEAFEEBFF220460DED3EB9FFF
:10009B00EA9EE99DE8C2E78CF0C2F795F0400CE8C8
:1000AB00CCF8E9CDF9EACEFAEBCFFB1201E385D020
:1000BB00F05804700320D5B3E80470075002B2D592
:1000CB0002022292D5EC0460F7E4CCC0E0C398F8AE
:1000DB00603B94186008400DD0E0FB0201FAE4FB92
:1000EB00FAC9FC8028E830E406E4C9FBE4CAFCE862
:1000FB0030E305E4C9CACBFCE854076010F8C3E948
:10010B0013F9EA13FAEB13FBEC13FCD8F130F52FD0
:10011B00C3E49CFCEF9BFFEE9AFEED99FDD0E0FB58
:10012B00EF4E4D4C701222DB0302021FEC2CFCEF46
:10013B0033FFEE33FEED33FDED30E7EB0201FAEF6B
:10014B002BFFEE3AFEED39FDD0E0FB50130BBB005D
:10015B0003020222ED13FDEE13FEEF13FFEC13FC73
:10016B000201FA75F020800E75F010800575F0080D
:10017B007D007E007F003392D530D5031204C0EC96
:10018B00334010EF33FFEE33FEED33FDEC33FCD594
:10019B00F0ED22E5F0247EA2D513CC92E7CDCEFF75
:1001AB0022EDD2E7CD33EC3392D524814006E4FF28
:1001BB00FEFDFC22FCE4CFCECDCC24E0501174FF2D
:1001CB0080EDC3CC13CCCD13CDCE13CECF13CF0438
:1001DB0070F030D5DE0204C0E9D2E7C933E833F85A
:1001EB0092D5EDD2E7CD33EC33FC5002B2D522ECF5
:1001FB0030E7100FBF000C0EBE00080DBD00040B46
:10020B00EB6014A2D5EB13FCED92E7FD2274FFFC1F
:10021B00FDFEFF22E480F8A2D574FF13FC7D80E481
:10022B0080EFE709F608DFFA8046E709F208DFFA04
:10023B00803E88828C83E709F0A3DFFA8032E309E2
:10024B00F608DFFA8078E309F208DFFA807088821B
:10025B008C83E309F0A3DFFA806489828A83E0A3AD
:10026B00F608DFFA805889828A83E0A3F208DFFA66
:10027B00804C80D280FA80C680D4806980F2803333
:10028B00801080A680EA809A80A880DA80E280CAFB
:10029B00803389828A83ECFAE493A3C8C582C8CCE5
:1002AB00C583CCF0A3C8C582C8CCC583CCDFE9DE3F
:1002BB00E7800D89828A83E493A3F608DFF9ECFAD1
:1002CB00A9F0EDFB2289828A83ECFAE0A3C8C582F0
:1002DB00C8CCC583CCF0A3C8C582C8CCC583CCDF42
:1002EB00EADEE880DB89828A83E493A3F208DFF9F4
:1002FB0080CC88F0EF60010E4E60C388F0ED2402D5
:10030B00B4040050B9F582EB2402B4040050AF23BF
:10031B002345822390027D73BB010689828A83E089
:10032B00225002E722BBFE02E32289828A83E493F6
:10033B0022BB010689828A83F0225002F722BBFE80
:10034B0001F322BC000BBE0029EF8DF084FFADF052
:10035B0022E4CCF875F008EF2FFFEE33FEEC33FC04
:10036B00EE9DEC984005FCEE9DFE0FD5F0E9E4CE3A
:10037B00FD22EDF8F5F0EE8420D21CFEADF075F009
:10038B0008EF2FFFED33FD4007985006D5F0F22212
:10039B00C398FD0FD5F0EA22E88FF0A4CC8BF0A424
:1003AB002CFCE98EF0A42CFC8AF0EDA42CFCEA8E3C
:1003BB00F0A4CDA8F08BF0A42DCC3825F0FDE98F5F
:1003CB00F0A42CCD35F0FCEB8EF0A4FEA9F0EB8F56
:1003DB00F0A4CFC5F02ECD39FEE43CFCEAA42DCE23
:1003EB0035F0FDE43CFC2275F008758200EF2FFF21
:1003FB00EE33FECD33CDCC33CCC58233C5829BEDF2
:10040B009AEC99E58298400CF582EE9BFEED9AFDF5
:10041B00EC99FC0FD5F0D6E4CEFBE4CDFAE4CCF9A5
:10042B00A88222B800C1B90059BA002DEC8BF08418
:10043B00CFCECDFCE5F0CBF97818EF2FFFEE33FEE6
:10044B00ED33FDEC33FCEB33FB10D703994004EB9E
:10045B0099FB0FD8E5E4F9FA227818EF2FFFEE336A
:10046B00FEED33FDEC33FCC933C910D7059BE99A7C
:10047B004007EC9BFCE99AF90FD8E0E4C9FAE4CC0D
:10048B00FB2275F010EF2FFFEE33FEED33FDCC3377
:10049B00CCC833C810D7079BEC9AE899400AED9B60
:1004AB00FDEC9AFCE899F80FD5F0DAE4CDFBE4CC3F
:1004BB00FAE4C8F922C3E49FFFE49EFEE49DFDE449
:1004CB009CFC22EB9FF5F0EA9E42F0E99D42F0E89E
:1004DB009C45F022E8600FECC313FCED13FDEE130B
:1004EB00FEEF13FFD8F122E8600FEFC333FFEE33BB
:1004FB00FEED33FDEC33FCD8F122E6FC08E6FD08FB
:10050B00E6FE08E6FF22ECF608EDF608EEF608EF3D
:10051B00F622D083D082E493F608740193F6087424
:10052B000293F608740393F6740473A42582F58280
:10053B00E5F03583F58322E4FBF524F523F522F56D
:10054B0021F525F526F527F528F529F52AFDFCF5E6
:10055B002BF52CF52DF52E7856E66401600302077A
:10056B0061F678C4E67026785AE6FE08E6FF1209B3
:10057B00C0785CE6FE08E6FF78BEA60608A60778FC
:10058B0058E6FE08E6FF78BAA60608A60779BDE787
:10059B0078BF26F52619E71836F525E526AE25781A
:1005AB0002CEC313CE13D8F9F52A8E2978BAE6FEFC
:1005BB0008E67802CEC313CE13D8F9FDAC06E4FBE4
:1005CB00EBC39430400302069212097CFF27F528F7
:1005DB00EE1937F527E526252AFDE5253529FCD328
:1005EB00E5289DE5279C5014C3E526952AFDE525B6
:1005FB009529FCC3E5289DE5279C5016120A0E7021
:10060B0001068604D39400EC94FF50030207A40266
:10061B00079DEB25E0245DF9D3EF97EE1997402466
:10062B0012097378011204F2EF4401F524EEF5235D
:10063B00EDF522ECF521120A03120A1512098212AA
:10064B000A1F803E12097CC397EE1997501E1209A0
:10065B007378011204F28F248E238D228C21120ABF
:10066B0003120A1F120982120A158016120A0E7043
:10067B0001068606D39400EE94FF50030207A402F2
:10068B00079D0B0B0205CBE509701878C77601089F
:10069B00F61209651209F712091E1209C075090134
:1006AB0002073DE5096401703312098DC006C007CE
:1006BB001209D9D007D006C31204CE50751209A661
:1006CB0050121209E8400D1209C8700878C406755B
:1006DB000902805E1209651209F78050E509640270
:1006EB00705078C7F608F612098DC006C0071209BC
:1006FB00D9D007D006C31204CE50261209A650211A
:10070B001209E8401C1209C8701778C406E6C39496
:10071B000A400EE6B40A0678C87601800478C476DF
:10072B000F12096578C0120511E478C512091E1263
:10073B0009C0E4F50AF50BE52C252EFFE52B352D2D
:10074B00FEEF7802C333CE33CED8F9FFE48F0F8E92
:10075B000EF50DF50C22050BE50B7002050AD39473
:10076B0096E50A9400401B750A00750B98E4F50991
:10077B0078C4F678C012051D00000000E478BAF6C4
:10078B0008F6120A0E7001068606D39400EE94FF4B
:10079B00400778C576FF0876032202140000011883
:1007AB000002160000011900011A0060D5000000BC
:1007BB00000000000000000000000000000000002E
:1007CB00000000000000000000000000000000001E
:1007DB00000000000000000000000000000000000E
:1007EB0000000000000000000000000000000000FE
:1007FB0000000000000000000000000000000000EE
:10080B0000000000000000000000000000000000DD
:10081B0000000000000000000000000000000000CD
:10082B0000000000000000000000000000000000BD
:10083B0000000000000000000000000000000000AD
:10084B00000000000000000000000000000000009D
:10085B00000000000000000000000000000000008D
:10086B00000000000000000000000000000000007D
:10087B00000000000000000000000000000000006D
:10088B0000000000011F00011E0020645600000044
:10089B00000000000000000000000000000000004D
:1008AB00000000000000000000000000000000003D
:1008BB00000000000000000000000000000000002D
:1008CB00000000000000000000000000000000001D
:1008DB00000000000000000000000000000000000D
:1008EB0000000000000000000000000000000000FD
:1008FB00000FBA0000000000000000000000000024
:10090B000000010800010900020A0000040C0000AD
:10091B00000000F608F6AE2BAF2CFC7D1812034E30
:10092B00AC06AD07E4120173E4FBFAF9783F120051
:10093B007D1201AC78BEA60608A607AE2DAF2E7CA5
:10094B00007D1812034EAC06AD07E4120173E4FBF5
:10095B00FAF9783F12007D0201AC7858E6FE08E602
:10096B00FF78BAA60608A607AF24AE23AD22AC21AA
:10097B0022EB25E0245DF9EB25E0245AF8E6FE088E
:10098B00E6227F02FEFDFCAB0FAA0EA90DA80C12EE
:10099B0003A3E47B64FAF9F802042E7858E6FE0808
:1009AB00E6FF252AFDE5293EFC78BAE6FA08E6FBC8
:1009BB00C39DEA9C2278BCA60608A6072278C01223
:1009CB000505AB24AA23A922A821C30204CEE50B5B
:1009DB0025E0FFE50A33AB07FAE4F9F822C3EF95FC
:1009EB002AFFEE9529FED3EB9FEA9E2278C01205D3
:1009FB001178C47601E40822EB25E0245CF8E6FECE
:100A0B0008E62278C50806E61822252CF52CEE35CB
:100A1B002BF52B22252EF52EEE352DF52D227810CC
:100A2B00120CDAE48F537808120CDA8F54E54AFF74
:100A3B00E48F55F552F550E4F551E550120C64E096
:100A4B00FFE551C39F4003020AF6120CC72403F5BE
:100A5B0082E43400120C72E065536003020AEB125D
:100A6B000CC72404F582E43400120C72E065547058
:100A7B006F120CC72405F582E43400120C72E0658A
:100A8B0055705D120CC72401F582E43400120C7210
:100A9B00E0FE120CC72402F582E43400120C72E063
:100AAB007C002400FFEC3EAB07FA7D05FE12034EE3
:100ABB00EF2BFDEE3AFCC3E5449DE5439C5021C36F
:100ACB00EB9FFFEA9EFED3E5449FE5439E4011AFAB
:100ADB00507401A807088002C333D8FC4252800B24
:100AEB000551E551640E6003020A450550E550645B
:100AFB00036003020A42AF52228F30E530D39402D7
:100B0B004003020BD378417C007D007B007A007997
:100B1B00317E007F0F1202FD120A298F4074017E75
:100B2B0000A830088005C333CE33CED8F9FF7C0044
:100B3B00EF5540B50708ECB5060485303022120C92
:100B4B0062E0F540C3941C400674F22540F540E585
:100B5B004004FF120C62EFF0E54075F00E8485F057
:100B6B0040E533FF120C992401F582E43400F58340
:100B7B00E540120C76EFF0120C992402F582E43466
:100B8B0000120CA0E534F07810120C8D2403F582C2
:100B9B00E43400120CA0EFF07808120C8D2404F54D
:100BAB0082E43400120CA0EFF0E53AFF120C98240B
:100BBB0005F582E43400120CA0EFF07F007E1A12D0
:100BCB001101120C7C120F1722E4FF7E0120870209
:100BDB001E0FE518700AE51A6009151AE4FE80036A
:100BEB00E4F51AEE6004D2938002C293EF6042F5F3
:100BFB001D051CE51C7002051BC3945EE51B9401CF
:100C0B00400E430740E51CB45E06E51BB401012210
:100C1B00C3E51C9426E51B94024039430780E51C71
:100C2B00B42606E51BB4020122751B02751C2B8032
:100C3B0023C3E51C942CE51B94015013C3E51C94B2
:100C4B0004E51B94004008E4F51BF51CAF1D22E4E2
:100C5B00F51BF51C7F0022E53075F047A42400F549
:100C6B0082E43400F58322F583E55175F005020526
:100C7B00367B017A0079007546007547D57F007E7B
:100C8B001A22AF3AAE39AD38AC371204DFE4E53097
:100C9B0075F047A422F58375F005E540020536FD96
:100CAB00FB7A0079BAFE7F0F0202FD7B017A007995
:100CBB00007536007537D57D007C1A22E55075F02E
:100CCB0047A422E5822530F582E43583F58322AFF4
:100CDB004AAE49AD48AC470204DFC3E51794F4E5CF
:100CEB0016940122787FE4F6D8FD7581C8020D3683
:100CFB000210CCE493A3F8E493A34003F68001F233
:100D0B0008DFF48029E493A3F85407240CC8C333F9
:100D1B00C4540F4420C8834004F456800146F6DFC8
:100D2B00E4800B01020408102040809007A5E47EAC
:100D3B00019360BCA3FF543F30E509541FFEE493BD
:100D4B00A360010ECF54C025E060A840B8E493A384
:100D5B00FAE493A3F8E493A3C8C582C8CAC583CAAF
:100D6B00F0A3C8C582C8CAC583CADFE9DEE780BE67
:100D7B00C0E0C0F0C083C082C0D075D000C000C03E
:100D8B0001C002C003C004C005C006C00730D82391
:100D9B00C2D885FC1085FB11C3E5119513F515E53C
:100DAB00109512F514851012851113AF15FE120D47
:100DBB00DC800353D879D007D006D005D004D003FC
:100DCB00D002D001D000D0D0D082D083D0F0D0E0F0
:100DDB0032AD07AC067857E67017C3ED94C8EC94A8
:100DEB0000404B30804808A60408A60578577601CA
:100DFB0022EDAE047802C333CE33CED8F9FFD378CD
:100E0B0059E69F18E69E4010E50825E0245AF8A6FF
:100E1B000408A60505088006E47857F6F508E508EA
:100E2B00C394304009E4F5087856760108F6228B16
:100E3B00318A3289338C348D35E4F538F539C3E595
:100E4B00399537E53895365029E5352539FFE534A1
:100E5B003538FE12005EAB310533E533AA32700232
:100E6B00053214F9EF12033C0539E53970D005381A
:100E7B0080CCAB31AA32A93322E4FFE4F530E53064
:100E8B002FFEEF120C64120CCEEEF00530E530B4F1
:100E9B0047EC0FBF03E57F007E1A121101120C7C89
:100EAB00120F17E4FFE4F530EF120C64120CCE7442
:100EBB0003F00530E530B447EF0FBF03E8120CB673
:100ECB00020E3AC0E0C0F0C083C082C0D075D00023
:100EDB00C000C001C002C003C004C005C006C007EB
:100EEB0012108F120FDD0517E517700205165391BF
:100EFB007FD007D006D005D004D003D002D001D0CC
:100F0B0000D0D0D082D083D0F0D0E0328E418F424F
:100F1B008B438A448945854148854249E5422547AB
:100F2B00FFE5413546FEC3E5499FE5489E5023AB9F
:100F3B00430545E545AA447002054414F912032301
:100F4B00FDAF49AE481210E70549E54970CE05489B
:100F5B0080CA2278C7E66034E4F678C5F608F6E571
:100F6B0019120C64E4F0FFE519120C64E5822F12E0
:100F7B000CD2E4F00FBF47EFE4F518FF7E1A121105
:100F8B0001120C7C120F177F010211D2120CE540DB
:100F9B0003E4F51822C0E0C0F0C083C082C0D07556
:100FAB00D000C000C001C002C003C004C005C00611
:100FBB00C007120542C2CFD007D006D005D004D04F
:100FCB0003D002D001D000D0D0D082D083D0F0D0CB
:100FDB00E032120BD48F2FE52F602AE52F640160CE
:100FEB0024E52FB4410DE4F5197F011211B57F01F2
:100FFB000211D2E52FB4C10DE4F5197F021211D203
:10100B007F021211B522120CB6120E3A900000E0BC
:10101B00C3942A4002E4F0900047E0C3942A4002B4
:10102B00E4F090008EE0C3942A4002E4F07F007E4F
:10103B001A121101120C7C020F171211BD1200169D
:10104B001211981211C41211AC12001E121135128A
:10105B00114E1211671211A212118D12111B0211D6
:10106B008078C7E6601DE4F678C5F608F678417C13
:10107B0000120CAA120A29EF30E0087F011211D2DC
:10108B00751A0F22E51F601C051EE51EB40103D265
:10109B009022E51EB42803C29022E51EB45005E44D
:1010AB00F51E151F22E51814600D14600D24036046
:1010BB000C14700C02106C02002E020F5E120E84C8
:1010CB00221210451211CBD2AFE4FBFD7F031200AD
:1010DB00701200261200571210B080F8A2AF9200C7
:1010EB00120003438F0175FF8075EF02EDF0538FF4
:1010FB00FEA20092AF22A2AF9200120003438F0315
:10110B0075FF8075EF02E4F0538FFCA20092AF22C3
:10111B00E5D85440FFE5F75480FE53D8BF53F77F13
:10112B0075DA31EF42D8EE42F722AF885388AF75AC
:10113B008C0B758AD7758D34EF5440FEEF54104EDF
:10114B00428822E5C8540453C8FB75CD4075CC9832
:10115B0075CB4075CA9843C80442C822E591540424
:10116B005391FB7595FF75940B7593B075923F4337
:10117B00910442912275E69075F31075A8A875B885
:10118B001022C2DE75D904759E01D2DE227590BF86
:10119B0075A57F75D50722758E14758922438850E6
:1011AB002243B180E5B130E6FB228F18E4F516F54A
:1011BB0017227597DE7597AD2275E34075E2012214
:0A11CB00C290D2930210118F1F2270
:00000001FF
