:020000040000FA
:10000000020BDDC2AF75FF8075EF028F828E8375A4
:10001000B7A575B7F12275D4FE2232020022E4F5AD
:10002000A9223202001A7597A52222020ED11210BF
:10003000EE1200161210C91210F51210DD12001E79
:1000400012105412106D1210861210D31210BE121C
:0900500010200210B17597A522E1
:10005B00020CECA2AF9200C2AF8F828E83E493FFAF
:10006B00A20092AF228F972202109F020218E8641F
:10007B0080F8E933E83360110460F0ED33EC337052
:10008B0009E8FCE9FDEAFEEBFF220460DED3EB9FFF
:10009B00EA9EE99DE8C2E78CF0C2F795F0400CE8C8
:1000AB00CCF8E9CDF9EACEFAEBCFFB1201E385D020
:1000BB00F05804700320D5B3E80470075002B2D592
:1000CB0002022292D5EC0460F7E4CCC0E0C398F8AE
:1000DB00603B94186008400DD0E0FB0201FAE4FB92
:1000EB00FAC9FC8028E830E406E4C9FBE4CAFCE862
:1000FB0030E305E4C9CACBFCE854076010F8C3E948
:10010B0013F9EA13FAEB13FBEC13FCD8F130F52FD0
:10011B00C3E49CFCEF9BFFEE9AFEED99FDD0E0FB58
:10012B00EF4E4D4C701222DB0302021FEC2CFCEF46
:10013B0033FFEE33FEED33FDED30E7EB0201FAEF6B
:10014B002BFFEE3AFEED39FDD0E0FB50130BBB005D
:10015B0003020222ED13FDEE13FEEF13FFEC13FC73
:10016B000201FA75F020800E75F010800575F0080D
:10017B007D007E007F003392D530D5031204C0EC96
:10018B00334010EF33FFEE33FEED33FDEC33FCD594
:10019B00F0ED22E5F0247EA2D513CC92E7CDCEFF75
:1001AB0022EDD2E7CD33EC3392D524814006E4FF28
:1001BB00FEFDFC22FCE4CFCECDCC24E0501174FF2D
:1001CB0080EDC3CC13CCCD13CDCE13CECF13CF0438
:1001DB0070F030D5DE0204C0E9D2E7C933E833F85A
:1001EB0092D5EDD2E7CD33EC33FC5002B2D522ECF5
:1001FB0030E7100FBF000C0EBE00080DBD00040B46
:10020B00EB6014A2D5EB13FCED92E7FD2274FFFC1F
:10021B00FDFEFF22E480F8A2D574FF13FC7D80E481
:10022B0080EFE709F608DFFA8046E709F208DFFA04
:10023B00803E88828C83E709F0A3DFFA8032E309E2
:10024B00F608DFFA8078E309F208DFFA807088821B
:10025B008C83E309F0A3DFFA806489828A83E0A3AD
:10026B00F608DFFA805889828A83E0A3F208DFFA66
:10027B00804C80D280FA80C680D4806980F2803333
:10028B00801080A680EA809A80A880DA80E280CAFB
:10029B00803389828A83ECFAE493A3C8C582C8CCE5
:1002AB00C583CCF0A3C8C582C8CCC583CCDFE9DE3F
:1002BB00E7800D89828A83E493A3F608DFF9ECFAD1
:1002CB00A9F0EDFB2289828A83ECFAE0A3C8C582F0
:1002DB00C8CCC583CCF0A3C8C582C8CCC583CCDF42
:1002EB00EADEE880DB89828A83E493A3F208DFF9F4
:1002FB0080CC88F0EF60010E4E60C388F0ED2402D5
:10030B00B4040050B9F582EB2402B4040050AF23BF
:10031B002345822390027D73BB010689828A83E089
:10032B00225002E722BBFE02E32289828A83E493F6
:10033B0022BB010689828A83F0225002F722BBFE80
:10034B0001F322BC000BBE0029EF8DF084FFADF052
:10035B0022E4CCF875F008EF2FFFEE33FEEC33FC04
:10036B00EE9DEC984005FCEE9DFE0FD5F0E9E4CE3A
:10037B00FD22EDF8F5F0EE8420D21CFEADF075F009
:10038B0008EF2FFFED33FD4007985006D5F0F22212
:10039B00C398FD0FD5F0EA22E88FF0A4CC8BF0A424
:1003AB002CFCE98EF0A42CFC8AF0EDA42CFCEA8E3C
:1003BB00F0A4CDA8F08BF0A42DCC3825F0FDE98F5F
:1003CB00F0A42CCD35F0FCEB8EF0A4FEA9F0EB8F56
:1003DB00F0A4CFC5F02ECD39FEE43CFCEAA42DCE23
:1003EB0035F0FDE43CFC2275F008758200EF2FFF21
:1003FB00EE33FECD33CDCC33CCC58233C5829BEDF2
:10040B009AEC99E58298400CF582EE9BFEED9AFDF5
:10041B00EC99FC0FD5F0D6E4CEFBE4CDFAE4CCF9A5
:10042B00A88222B800C1B90059BA002DEC8BF08418
:10043B00CFCECDFCE5F0CBF97818EF2FFFEE33FEE6
:10044B00ED33FDEC33FCEB33FB10D703994004EB9E
:10045B0099FB0FD8E5E4F9FA227818EF2FFFEE336A
:10046B00FEED33FDEC33FCC933C910D7059BE99A7C
:10047B004007EC9BFCE99AF90FD8E0E4C9FAE4CC0D
:10048B00FB2275F010EF2FFFEE33FEED33FDCC3377
:10049B00CCC833C810D7079BEC9AE899400AED9B60
:1004AB00FDEC9AFCE899F80FD5F0DAE4CDFBE4CC3F
:1004BB00FAE4C8F922C3E49FFFE49EFEE49DFDE449
:1004CB009CFC22EB9FF5F0EA9E42F0E99D42F0E89E
:1004DB009C45F022E8600FECC313FCED13FDEE130B
:1004EB00FEEF13FFD8F122E8600FEFC333FFEE33BB
:1004FB00FEED33FDEC33FCD8F122E6FC08E6FD08FB
:10050B00E6FE08E6FF22ECF608EDF608EEF608EF3D
:10051B00F622D083D082E493F608740193F6087424
:10052B000293F608740393F6740473A42582F58280
:10053B00E5F03583F58322E4FBF524F523F522F56D
:10054B0021F525F526F527F528F529F52AFDFCF5E6
:10055B002BF52CF52DF52E785AE664016003020776
:10056B0061F678C8E67026785EE6FE08E6FF1209AB
:10057B00C97860E6FE08E6FF78C2A60608A60778EB
:10058B005CE6FE08E6FF78BEA60608A60779C1E77B
:10059B0078C326F52619E71836F525E526AE257816
:1005AB0002CEC313CE13D8F9F52A8E2978BEE6FEF8
:1005BB0008E67802CEC313CE13D8F9FDAC06E4FBE4
:1005CB00EBC394304003020692120985FF27F528EE
:1005DB00EE1937F527E526252AFDE5253529FCD328
:1005EB00E5289DE5279C5014C3E526952AFDE525B6
:1005FB009529FCC3E5289DE5279C5016120A177018
:10060B0001068604D39400EC94FF50030207A40266
:10061B00079DEB25E02461F9D3EF97EE1997402462
:10062B0012097C78011204F2EF4401F524EEF52354
:10063B00EDF522ECF521120A0C120A1E12098B128F
:10064B000A28803E120985C397EE1997501E12098E
:10065B007C78011204F28F248E238D228C21120AB6
:10066B000C120A2812098B120A1E8016120A177016
:10067B0001068606D39400EE94FF50030207A402F2
:10068B00079D0B0B0205CBE50F701878CB76010895
:10069B00F612096E120A001209271209C9750F0109
:1006AB0002073DE50F64017033120996C006C007BF
:1006BB001209E2D007D006C31204CE50751209AF4F
:1006CB0050121209F1400D1209D1700878C8067545
:1006DB000F02805E12096E120A008050E50F640251
:1006EB00705078CBF608F6120996C006C0071209AF
:1006FB00E2D007D006C31204CE50261209AF502108
:10070B001209F1401C1209D1701778C806E6C39480
:10071B000A400EE6B40A0678CC7601800478C876D7
:10072B000F12096E78C4120511E478C91209271249
:10073B0009C9E4F509F50AE52C252EFFE52B352D26
:10074B00FEEF7802C333CE33CED8F9FFE48F0E8E93
:10075B000DF50CF50B22050AE50A70020509D39479
:10076B0096E5099400401B750900750A98E4F50F8E
:10077B0078C8F678C412051D00000000E478BEF6B8
:10078B0008F6120A177001068606D39400EE94FF42
:10079B00400778C976FF087603220214000001197E
:1007AB000002170000011600011A00011B0060D5A2
:1007BB00000000000000000000000000000000002E
:1007CB00000000000000000000000000000000001E
:1007DB00000000000000000000000000000000000E
:1007EB0000000000000000000000000000000000FE
:1007FB0000000000000000000000000000000000EE
:10080B0000000000000000000000000000000000DD
:10081B0000000000000000000000000000000000CD
:10082B0000000000000000000000000000000000BD
:10083B0000000000000000000000000000000000AD
:10084B00000000000000000000000000000000009D
:10085B00000000000000000000000000000000008D
:10086B00000000000000000000000000000000007D
:10087B00000000000000000000000000000000006D
:10088B000000000000000001560001570001590054
:10089B00015800010F0020645A0000000000000006
:1008AB00000000000000000000000000000000003D
:1008BB00000000000000000000000000000000002D
:1008CB00000000000000000000000000000000001D
:1008DB00000000000000000000000000000000000D
:1008EB0000000000000000000000000000000000FD
:1008FB00000000000000000000000000000FBE0020
:10090B0000000000000000000000000000000108D3
:10091B000002090000040B0000000000F608F6AE10
:10092B002BAF2CFC7D1812034EAC06AD07E4120165
:10093B0073E4FBFAF9783F12007D1201AC78C2A682
:10094B000608A607AE2DAF2E7C007D1812034EAC09
:10095B0006AD07E4120173E4FBFAF9783F12007D50
:10096B000201AC785CE6FE08E6FF78BEA60608A698
:10097B0007AF24AE23AD22AC2122EB25E02461F995
:10098B00EB25E0245EF8E6FE08E6227F02FEFDFC86
:10099B00AB0EAA0DA90CA80B1203A3E47B64FAF906
:1009AB00F802042E785CE6FE08E6FF252AFDE52911
:1009BB003EFC78BEE6FA08E6FBC39DEA9C2278C0B3
:1009CB00A60608A6072278C4120505AB24AA23A9FC
:1009DB0022A821C30204CEE50A25E0FFE50933ABCB
:1009EB0007FAE4F9F822C3EF952AFFEE9529FED317
:1009FB00EB9FEA9E2278C412051178C87601E408B1
:100A0B0022EB25E02460F8E6FE08E62278C908060A
:100A1B00E61822252CF52CEE352BF52B22252EF561
:100A2B002EEE352DF52D227810120CE1E48F537834
:100A3B0008120CE18F54E54AFFE48F55F552F5503F
:100A4B00E4F551E550120C6BE0FFE551C39F4003F9
:100A5B00020AFF120CCE2403F582E43400120C7947
:100A6B00E065536003020AF4120CCE2404F582E411
:100A7B003400120C79E06554706F120CCE2405F51E
:100A8B0082E43400120C79E06555705D120CCE24B3
:100A9B0001F582E43400120C79E0FE120CCE240234
:100AAB00F582E43400120C79E07C002400FFEC3E6C
:100ABB00AB07FA7D05FE12034EEF2BFDEE3AFCC39E
:100ACB00E5449DE5439C5021C3EB9FFFEA9EFED37B
:100ADB00E5449FE5439E4011AF507401A807088081
:100AEB0002C333D8FC4252800B0551E551640E60B2
:100AFB0003020A4E0550E55064036003020A4BAF34
:100B0B0052228F30E530D394024003020BDC784144
:100B1B007C007D007B007A0079317E007F0F120212
:100B2B00FD120A328F4074017E00A830088005C385
:100B3B0033CE33CED8F9FF7C00EF5540B50708EC28
:100B4B00B5060485303022120C69E0F540C3941CC5
:100B5B00400674F22540F540E54004FF120C69EFA6
:100B6B00F0E54075F00E8485F040E533FF120CA0E4
:100B7B002401F582E43400F583E540120C7DEFF09F
:100B8B00120CA02402F582E43400120CA7E534F019
:100B9B007810120C942403F582E43400120CA7EFA6
:100BAB00F07808120C942404F582E43400120CA79C
:100BBB00EFF0E53AFF120C9F2405F582E4340012A6
:100BCB000CA7EFF07F007E1A121006120C83120E88
:100BDB008A22787FE4F6D8FD7581CC020C24020FB3
:100BEB000EE493A3F8E493A34003F68001F208DF2D
:100BFB00F48029E493A3F85407240CC8C333C454DA
:100C0B000F4420C8834004F456800146F6DFE4808D
:100C1B000B01020408102040809007A5E47E01938D
:100C2B0060BCA3FF543F30E509541FFEE493A3605F
:100C3B00010ECF54C025E060A840B8E493A3FAE4BA
:100C4B0093A3F8E493A3C8C582C8CAC583CAF0A30B
:100C5B00C8C582C8CAC583CADFE9DEE780BEE530F6
:100C6B0075F047A42400F582E43400F58322F58364
:100C7B00E55175F0050205367B017A007900754662
:100C8B00007547D57F007E1A22AF3AAE39AD38AC2E
:100C9B00371204DFE4E53075F047A422F58375F0D5
:100CAB0005E540020536FDFB7A0079BEFE7F0F029B
:100CBB0002FD7B017A0079007536007537D57D0012
:100CCB007C1A22E55075F047A422E5822530F58287
:100CDB00E43583F58322AF4AAE49AD48AC470204F5
:100CEB00DFC0E0C0F0C083C082C0D075D000C000B0
:100CFB00C001C002C003C004C005C006C00730D885
:100D0B0023C2D885FC1085FB11C3E5119513F5158E
:100D1B00E5109512F514851012851113AF15FE12FF
:100D2B000D4D800353D879D007D006D005D004D011
:100D3B0003D002D001D000D0D0D082D083D0F0D05D
:100D4B00E032AD07AC06785BE67017C3ED94C8ECE8
:100D5B009400404B30804808A60408A605785B76C3
:100D6B000122EDAE047802C333CE33CED8F9FFD3D4
:100D7B00785DE69F18E69E4010E50825E0245EF8B6
:100D8B00A60408A60505088006E4785BF6F508E5D9
:100D9B0008C394304009E4F508785A760108F62226
:100DAB0078CBE66035E4F678C9F608F6E51A120C4E
:100DBB006BE4F0FFE51A120C6BE5822F120CD9E4F1
:100DCB00F00FBF47EFE4FF1210E67E1A1210061267
:100DDB000C83120E8A7F01021103C3E51894F4E50C
:100DEB001794014005E4FF1210E6228B318A3289F9
:100DFB00338C348D35E4F538F539C3E5399537E562
:100E0B003895365029E5352539FFE5343538FE124E
:100E1B00005EAB310533E533AA327002053214F9AB
:100E2B00EF12033C0539E53970D0053880CCAB3176
:100E3B00AA32A93322E4FFE4F530E5302FFEEF129E
:100E4B000C6B120CD5EEF00530E530B447EC0FBF50
:100E5B0003E57F007E1A121006120C83120E8AE431
:100E6B00FFE4F530EF120C6B120CD57403F0053068
:100E7B00E530B447EF0FBF03E8120CBD020DF68E41
:100E8B00418F428B438A448945854148854249E5D8
:100E9B00422547FFE5413546FEC3E5499FE5489EA0
:100EAB005023AB430545E545AA447002054414F9AC
:100EBB00120323FDAF49AE48120FEC0549E549700B
:100ECB00CE054880CA22C0E0C0F0C083C082C0D02B
:100EDB0075D000C000C001C002C003C004C005C073
:100EEB0006C007120542C2CFD007D006D005D004EA
:100EFB00D003D002D001D000D0D0D082D083D0F09C
:100F0B00D0E032752F0112002E1210FCD2AFE4FB91
:100F1B00FD7F0312007012002612005512103A12B8
:100F2B000FD012002AE55620E7EFE52F7F00700265
:100F3B007F018F2FE52F24FF929080DD120CBD12C5
:100F4B000DF6900000E0C3942A4002E4F0900047B5
:100F5B00E0C3942A4002E4F090008EE0C3942A4050
:100F6B0002E4F07F007E1A121006120C83020E8A26
:100F7B0078CCE6601CE418F67F01121103E478C903
:100F8B00F608F678317C00120CB1AF1A120B0D80FB
:100F9B000BC3E51894E8E51794034005E4FF121022
:100FAB00E62278CBE6601DE4F678C9F608F67841C0
:100FBB007C00120CB1120A32EF30E0087F011211E3
:100FCB0003751B0F22E51914600D14600D240360CB
:100FDB000C14700C020FAD020F7B020DAB120E4006
:100FEB0022A2AF9200120003438F0175FF8075EFB1
:100FFB0002EDF0538FFEA20092AF22A2AF9200122D
:10100B000003438F0375FF8075EF02E4F0538FFCF1
:10101B00A20092AF22E5D85440FFE5F75480FE536F
:10102B00D8BF53F77F75DA31EF42D8EE42F722E49F
:10103B00F556E516C3940A400F74F62516F516AF50
:10104B00570557E5576FF55622AF885388AF758C08
:10105B000B758AD7758D34EF5440FEEF54104E420A
:10106B008822E5C8540453C8FB75CD4075CC9875E0
:10107B00CB4075CA9843C80442C822E59154045327
:10108B0091FB7595FF75940B7593B075923F4391DA
:10109B0004429122C0E00518E518700205170516E9
:1010AB0053917FD0E03275E69075F31075A8A87553
:1010BB00B81022C2DE75D904759E01D2DE2275905E
:1010CB00BF75A57F75D50722758E14758922438848
:1010DB00502243B180E5B130E6FB228F19E4F517BE
:1010EB00F518227597DE7597AD2275E34075E20111
:0B10FB0022C290D293020F478F5922AF
:00000001FF
