:020000040000FA
:10000000020E04A2AF9200C2AF8F828E83E493FFF0
:10001000A20092AF2275D4FE22323202001AE4F519
:0A002000A922220200197597A522FB
:10002B000211BBA2AF9200C2AF75FF8075EF028FBA
:10003B00828E8375B7A575B7F1438F0175FF8075F8
:10004B00EF02EDF0538FFEA20092AF227597A5221F
:10005B00020F9575E69075F31075A8A875B8102268
:10006B008F19E4F517F5182202117B020218E864C8
:10007B0080F8E933E83360110460F0ED33EC337052
:10008B0009E8FCE9FDEAFEEBFF220460DED3EB9FFF
:10009B00EA9EE99DE8C2E78CF0C2F795F0400CE8C8
:1000AB00CCF8E9CDF9EACEFAEBCFFB1201E385D020
:1000BB00F05804700320D5B3E80470075002B2D592
:1000CB0002022292D5EC0460F7E4CCC0E0C398F8AE
:1000DB00603B94186008400DD0E0FB0201FAE4FB92
:1000EB00FAC9FC8028E830E406E4C9FBE4CAFCE862
:1000FB0030E305E4C9CACBFCE854076010F8C3E948
:10010B0013F9EA13FAEB13FBEC13FCD8F130F52FD0
:10011B00C3E49CFCEF9BFFEE9AFEED99FDD0E0FB58
:10012B00EF4E4D4C701222DB0302021FEC2CFCEF46
:10013B0033FFEE33FEED33FDED30E7EB0201FAEF6B
:10014B002BFFEE3AFEED39FDD0E0FB50130BBB005D
:10015B0003020222ED13FDEE13FEEF13FFEC13FC73
:10016B000201FA75F020800E75F010800575F0080D
:10017B007D007E007F003392D530D5031204C0EC96
:10018B00334010EF33FFEE33FEED33FDEC33FCD594
:10019B00F0ED22E5F0247EA2D513CC92E7CDCEFF75
:1001AB0022EDD2E7CD33EC3392D524814006E4FF28
:1001BB00FEFDFC22FCE4CFCECDCC24E0501174FF2D
:1001CB0080EDC3CC13CCCD13CDCE13CECF13CF0438
:1001DB0070F030D5DE0204C0E9D2E7C933E833F85A
:1001EB0092D5EDD2E7CD33EC33FC5002B2D522ECF5
:1001FB0030E7100FBF000C0EBE00080DBD00040B46
:10020B00EB6014A2D5EB13FCED92E7FD2274FFFC1F
:10021B00FDFEFF22E480F8A2D574FF13FC7D80E481
:10022B0080EFE709F608DFFA8046E709F208DFFA04
:10023B00803E88828C83E709F0A3DFFA8032E309E2
:10024B00F608DFFA8078E309F208DFFA807088821B
:10025B008C83E309F0A3DFFA806489828A83E0A3AD
:10026B00F608DFFA805889828A83E0A3F208DFFA66
:10027B00804C80D280FA80C680D4806980F2803333
:10028B00801080A680EA809A80A880DA80E280CAFB
:10029B00803389828A83ECFAE493A3C8C582C8CCE5
:1002AB00C583CCF0A3C8C582C8CCC583CCDFE9DE3F
:1002BB00E7800D89828A83E493A3F608DFF9ECFAD1
:1002CB00A9F0EDFB2289828A83ECFAE0A3C8C582F0
:1002DB00C8CCC583CCF0A3C8C582C8CCC583CCDF42
:1002EB00EADEE880DB89828A83E493A3F208DFF9F4
:1002FB0080CC88F0EF60010E4E60C388F0ED2402D5
:10030B00B4040050B9F582EB2402B4040050AF23BF
:10031B002345822390027D73BB010689828A83E089
:10032B00225002E722BBFE02E32289828A83E493F6
:10033B0022BB010689828A83F0225002F722BBFE80
:10034B0001F322BC000BBE0029EF8DF084FFADF052
:10035B0022E4CCF875F008EF2FFFEE33FEEC33FC04
:10036B00EE9DEC984005FCEE9DFE0FD5F0E9E4CE3A
:10037B00FD22EDF8F5F0EE8420D21CFEADF075F009
:10038B0008EF2FFFED33FD4007985006D5F0F22212
:10039B00C398FD0FD5F0EA22E88FF0A4CC8BF0A424
:1003AB002CFCE98EF0A42CFC8AF0EDA42CFCEA8E3C
:1003BB00F0A4CDA8F08BF0A42DCC3825F0FDE98F5F
:1003CB00F0A42CCD35F0FCEB8EF0A4FEA9F0EB8F56
:1003DB00F0A4CFC5F02ECD39FEE43CFCEAA42DCE23
:1003EB0035F0FDE43CFC2275F008758200EF2FFF21
:1003FB00EE33FECD33CDCC33CCC58233C5829BEDF2
:10040B009AEC99E58298400CF582EE9BFEED9AFDF5
:10041B00EC99FC0FD5F0D6E4CEFBE4CDFAE4CCF9A5
:10042B00A88222B800C1B90059BA002DEC8BF08418
:10043B00CFCECDFCE5F0CBF97818EF2FFFEE33FEE6
:10044B00ED33FDEC33FCEB33FB10D703994004EB9E
:10045B0099FB0FD8E5E4F9FA227818EF2FFFEE336A
:10046B00FEED33FDEC33FCC933C910D7059BE99A7C
:10047B004007EC9BFCE99AF90FD8E0E4C9FAE4CC0D
:10048B00FB2275F010EF2FFFEE33FEED33FDCC3377
:10049B00CCC833C810D7079BEC9AE899400AED9B60
:1004AB00FDEC9AFCE899F80FD5F0DAE4CDFBE4CC3F
:1004BB00FAE4C8F922C3E49FFFE49EFEE49DFDE449
:1004CB009CFC22EB9FF5F0EA9E42F0E99D42F0E89E
:1004DB009C45F022E8600FECC313FCED13FDEE130B
:1004EB00FEEF13FFD8F122E8600FEFC333FFEE33BB
:1004FB00FEED33FDEC33FCD8F122E6FC08E6FD08FB
:10050B00E6FE08E6FF22ECF608EDF608EEF608EF3D
:10051B00F622D083D082E493F608740193F6087424
:10052B000293F608740393F6740473A42582F58280
:10053B00E5F03583F58322E4FBF524F523F522F56D
:10054B0021F525F526F527F528F529F52AFDFCF5E6
:10055B002BF52CF52DF52E785BE664016003020973
:10056B0047F678C9E6702A785FE6FE08E6FF78C1A1
:10057B00A60608A6077861E6FE08E6FF78C3A6067E
:10058B0008A607785DE6FE08E6FF78BFA60608A674
:10059B000779C2E778C426F52619E71836F525E55D
:1005AB0026AE257802CEC313CE13D8F9F52A8E29A1
:1005BB0078BFE6FE08E67802CEC313CE13D8F9FD5A
:1005CB00AC06E4FBEBC3943040030206F4EB25E0EE
:1005DB002462F9EB25E0245FF8E6FE08E6FF27F539
:1005EB0028EE1937F527E526252AFDE5253529FCC3
:1005FB00D3E5289DE5279C5014C3E526952AFDE5F8
:10060B00259529FCC3E5289DE5279C501978CA0838
:10061B0006E6187001068604D39400EC94FF500391
:10062B0002098D020986EB25E02462F9D3EF97EEE0
:10063B0019974043AF24AE23AD22AC2178011204AD
:10064B00F2EF4401F524EEF523EDF522ECF521EB69
:10065B0025E02461F8E6FE08E6252CF52CEE352B7B
:10066B00F52BEB25E0245FF8E6FE08E6252EF52EAC
:10067B00EE352DF52D806DEB25E02462F9EB25E0B1
:10068B00245FF8E6FE08E6C397EE1997503DAF24BA
:10069B00AE23AD22AC2178011204F28F248E238D70
:1006AB00228C21EB25E02461F8E6FE08E6252EF5E9
:1006BB002EEE352DF52DEB25E0245FF8E6FE08E652
:1006CB00252CF52CEE352BF52B801978CA0806E670
:1006DB00187001068606D39400EE94FF50030209AE
:1006EB008D0209860B0B0205CFE50F707B78CC765C
:1006FB000108F6785DE6FE08E6FF78BFA60608A6B9
:10070B0007AF24AE23AD22AC2178C512051178C9F1
:10071B007601E408F608F6AE2BAF2CFC7D1812031D
:10072B004EAC06AD07E4120173E4FBFAF9783F1205
:10073B00007D1201AC78C3A60608A607AE2DAF2E1E
:10074B007C007D1812034EAC06AD07E4120173E476
:10075B00FBFAF9783F12007D1201AC78C1A60608AE
:10076B00A607750F01020923E50F64016003020858
:10077B001F7F02FEFDFCAB0EAA0DA90CA80B1203EA
:10078B00A3E47B64FAF9F812042EC006C007E50A4D
:10079B0025E0FFE50933AB07FAE4F9F8D007D006FB
:1007AB00C31204CE4003020923785DE6FE08E6FF80
:1007BB00252AFDE5293EFC78BFE6FA08E6FBC39D3A
:1007CB00EA9C502CC3EF952AFFEE9529FED3EB9FA5
:1007DB00EA9E401C78C5120505AB24AA23A922A8C2
:1007EB0021C31204CE700978C906750F02020923C2
:1007FB00785DE6FE08E6FF78BFA60608A607AF24DD
:10080B00AE23AD22AC2178C512051178C97601E46F
:10081B00080208D5E50F6402600302092378CCF6C1
:10082B0008F67F02FEFDFCAB0EAA0DA90CA80B125D
:10083B0003A3E47B64FAF9F812042EC006C007E5A3
:10084B000A25E0FFE50933AB07FAE4F9F8D007D046
:10085B0006C31204CE5055785DE6FE08E6FF252A46
:10086B00FDE5293EFC78BFE6FA08E6FBC39DEA9C52
:10087B00503AC3EF952AFFEE9529FED3EB9FEA9EE4
:10088B00402A78C5120505AB24AA23A922A821C3A7
:10089B001204CE701778C906E6C3940A400EE6B46C
:1008AB000A0678CD7601800478C9760F785DE6FE6E
:1008BB0008E6FF78BFA60608A607AF24AE23AD2235
:1008CB00AC2178C5120511E478CAF608F6AE2BAF49
:1008DB002CFC7D1812034EAC06AD07E4120173E439
:1008EB00FBFAF9783F12007D1201AC78C3A606081B
:1008FB00A607AE2DAF2E7C007D1812034EAC06ADB5
:10090B0007E4120173E4FBFAF9783F12007D120140
:10091B00AC78C1A60608A607E4F509F50AE52C256F
:10092B002EFFE52B352DFEEF7802C333CE33CED819
:10093B00F9FFE48F0E8E0DF50CF50B22050AE50A77
:10094B0070020509D39496E5099400401B750900C4
:10095B00750A98E4F50F78C9F678C512051D0000E5
:10096B000000E478BFF608F678CA0806E6187001AE
:10097B00068606D39400EE94FF400778CA76FF08EC
:10098B007603220214000001190002170000011661
:10099B0000011A00011B0060D500000000000000E0
:1009AB00000000000000000000000000000000003C
:1009BB00000000000000000000000000000000002C
:1009CB00000000000000000000000000000000001C
:1009DB00000000000000000000000000000000000C
:1009EB0000000000000000000000000000000000FC
:1009FB0000000000000000000000000000000000EC
:100A0B0000000000000000000000000000000000DB
:100A1B0000000000000000000000000000000000CB
:100A2B0000000000000000000000000000000000BB
:100A3B0000000000000000000000000000000000AB
:100A4B00000000000000000000000000000000009B
:100A5B00000000000000000000000000000000008B
:100A6B00000000000000000000000000000000007B
:100A7B00015700015800015A00015900010F0020D5
:100A8B00645B00000000000000000000000000009C
:100A9B00000000000000000000000000000000004B
:100AAB00000000000000000000000000000000003B
:100ABB00000000000000000000000000000000002B
:100ACB00000000000000000000000000000000001B
:100ADB00000000000000000000000000000000000B
:100AEB000000000000000FBF00000000000000002D
:100AFB000000000000000001080002090000040BC8
:100B0B00000000000078427C007F0F1202FDAF4B0B
:100B1B00AE4AAD49AC4878101204DFE48F54AF4BAA
:100B2B00AE4AAD49AC4878081204DF8F55E54BFF50
:100B3B00E48F56F553F551E4F552E55175F047A4A2
:100B4B002400F582E43400F583E0FFE552C39F40B7
:100B5B0003020C35E55175F047A42403F582E43408
:100B6B0000F58375F005E552120536E06554600318
:100B7B00020C2AE55175F047A42404F582E43400F5
:100B8B00F58375F005E552120536E06555600302F5
:100B9B000C2AE55175F047A42405F582E43400F5E1
:100BAB008375F005E552120536E065567071E55117
:100BBB0075F047A42401F582E43400F58375F00544
:100BCB00E552120536E0FEE55175F047A42402F517
:100BDB0082E43400F58375F005E552120536E07CAE
:100BEB00002400FFEC3EAB07FA7D05FE12034EEF2F
:100BFB002BFDEE3AFCC3E5459DE5449C5021C3EB30
:100C0B009FFFEA9EFED3E5459FE5449E4011AF5101
:100C1B007401A807088002C333D8FC4253800B052C
:100C2B0052E552640E6003020B450551E551640316
:100C3B006003020B42AF53228F31E531D394024054
:100C4B0003020D757D007B007A0079327E00120B5A
:100C5B00108F4174017E00A831088005C333CE3359
:100C6B00CED8F9FF7C00EF5541B50708ECB506046B
:100C7B0085313122E53175F047A42400F582E43447
:100C8B0000F583E0F541C3941C400674F22541F551
:100C9B0041E54104FFE53175F047A42400F582E4FA
:100CAB003400F583EFF0E54175F00E8485F041E5F6
:100CBB0034FFE53175F047A42401F582E43400F5E7
:100CCB008375F005E541120536EFF0E53175F04718
:100CDB00A42402F582E43400F58375F005E5411296
:100CEB000536E535F0AF3BAE3AAD39AC387810127E
:100CFB0004DFE4E53175F047A42403F582E4340006
:100D0B00F58375F005E541120536EFF0AF3BAE3AD2
:100D1B00AD39AC3878081204DFE4E53175F047A43F
:100D2B002404F582E43400F58375F005E5411205E2
:100D3B0036EFF0E53BFFE4E53175F047A42405F50C
:100D4B0082E43400F58375F005E541120536EFF0CA
:100D5B007F007E1A12122C7B017A007900754700F6
:100D6B007548D57F007E1A12113422E4FF7E0120D4
:100D7B0087021E0FE519700AE51B6009151BE4FEBF
:100D8B008003E4F51BEE6004D2938002C293EF6004
:100D9B0042F51E051DE51D7002051CC3945EE51C86
:100DAB009401400E430740E51DB45E06E51CB401FB
:100DBB000122C3E51D9426E51C94024039430780AC
:100DCB00E51DB42606E51CB4020122751C02751D37
:100DDB002B8023C3E51D942CE51C94015013C3E514
:100DEB001D9404E51C94004008E4F51CF51DAF1E92
:100DFB0022E4F51CF51D7F0022787FE4F6D8FD7503
:100E0B0081CD020E4B021255E493A3F8E493A34059
:100E1B0003F68001F208DFF48029E493A3F854076A
:100E2B00240CC8C333C4540F4420C8834004F45665
:100E3B00800146F6DFE4800B01020408102040809D
:100E4B0090098EE47E019360BCA3FF543F30E5090B
:100E5B00541FFEE493A360010ECF54C025E060A89D
:100E6B0040B8E493A3FAE493A3F8E493A3C8C58230
:100E7B00C8CAC583CAF0A3C8C582C8CAC583CADF9E
:100E8B00E9DEE780BEE4FFE4F531E5312FFEEF75D7
:100E9B00F047A42400F582E43400F583E582253184
:100EAB00F582E43583F583EEF00531E531B447DAAD
:100EBB000FBF03D37F007E1A12122C7B017A0079AD
:100ECB00007547007548D57F007E1A121134E4FF78
:100EDB00E4F531EF75F047A42400F582E43400F516
:100EEB0083E5822531F582E43583F5837403F005C0
:100EFB0031E531B447DD0FBF03D67B017A007900B2
:100F0B007537007538D57D007C1A0210A2E5573075
:100F1B00E0080518E5187002051778CCE6605AE46E
:100F2B00F678CAF608F6E51A75F047A42400F582A0
:100F3B00E43400F583E4F0FFE51A75F047A42400D0
:100F4B00F582E43400F583E5822FF582E43583F5F1
:100F5B0083E4F00FBF47E1E4FF12006B7E1A12121D
:100F6B002C7B017A0079007547007548D57F007E90
:100F7B001A1211347F010213C7C3E5189464E517E5
:100F8B0094004005E4FF12006B22C0E0C0F0C08368
:100F9B00C082C0D075D000C000C001C002C003C069
:100FAB0004C005C006C00730D823C2D885FC108505
:100FBB00FB11C3E5119513F515E5109512F5148585
:100FCB001012851113AF15FE120FF6800353D8794B
:100FDB00D007D006D005D004D003D002D001D0006A
:100FEB00D0D0D082D083D0F0D0E032AD07AC067831
:100FFB005CE67017C3ED94C8EC9400404B3080480E
:10100B0008A60408A605785C760122EDAE047802EA
:10101B00C333CE33CED8F9FFD3785EE69F18E69E66
:10102B004010E50825E0245FF8A60408A60505088E
:10103B008006E4785CF6F508E508C394304009E4D3
:10104B00F508785B760108F6227B017A007900754A
:10105B0037007538D57D007C1A1210A2900000E085
:10106B00C3942A4002E4F0900047E0C3942A400264
:10107B00E4F090008EE0C3942A4002E4F07F007EFF
:10108B001A12122C7B017A0079007547007548D52E
:10109B007F007E1A0211348B328A3389348C358D62
:1010AB0036E4F539F53AC3E53A9538E539953750D5
:1010BB0029E536253AFFE5353539FE120003AB320B
:1010CB000534E534AA337002053314F9EF12033CEF
:1010DB00053AE53A70D0053980CCAB32AA33A93446
:1010EB0022E55730E0080518E5187002051778CD92
:1010FB00E66025E418F67F011213C7E478CAF608F8
:10110B00F678327C00FDFB7A0079BFFE7F0F12026E
:10111B00FDAF1A120C43800BC3E5189464E51794CA
:10112B00004005E4FF12006B228E428F438B448AF2
:10113B0045894685424985434AE5432548FFE542B3
:10114B003547FEC3E54A9FE5499E5023AB44054610
:10115B00E546AA457002054514F9120323FDAF4A73
:10116B00AE4912002E054AE54A70CE054980CA22C7
:10117B00C0E0C0F0C083C082C0D075D000C000C03A
:10118B0001C002C003C004C005C006C0071211F89D
:10119B00051653917FD007D006D005D004D003D0CD
:1011AB0002D001D000D0D0D082D083D0F0D0E032AA
:1011BB00C0E0C0F0C083C082C0D075D000C000C0FA
:1011CB0001C002C003C004C005C006C0071205421F
:1011DB00C2CFD007D006D005D004D003D002D001A7
:1011EB00D000D0D0D082D083D0F0D0E032120D76A8
:1011FB008F2FE52F602AE52F64016024E52FB44182
:10120B000DE4F51A7F0112006B7F010213C7E52F66
:10121B00B4C10DE4F51A7F021213C77F0212006BE3
:10122B0022A2AF9200C2AF75FF8075EF028F828E44
:10123B008375B7A575B7F1438F0375FF8075EF0203
:10124B00E4F0538FFCA20092AF2275300112127C96
:10125B001213BDD2AFE4FBFD7F031213C4120026A1
:10126B001200571213221212EC1200221212A38038
:10127B00EF1213AF1200151213921213B61213A61C
:10128B0012001E12133C12135512136E12139C12E2
:10129B00138712130802005EE55730E020E55A6011
:1012AB001C0559E559B40103D29022E559B4080342
:1012BB00C29022E559B41005E4F559155A2278CCA1
:1012CB00E6601DE4F678CAF608F6FDFB7A0079BFF6
:1012DB00FE120B10EF30E0087F011213C7751B0FC6
:1012EB0022E51914600D14600D2403600C14700CAE
:1012FB000212C90210EC020F18120E9022E5D854FC
:10130B0040FFE5F75480FE53D8BF53F77F75DA31B2
:10131B00EF42D8EE42F722E4F557E516C3940540A9
:10132B000F74FB2516F516AF580558E5586FF55792
:10133B0022AF885388AF758C0B758AD7758D34EFB8
:10134B005440FEEF54104E428822E5C8540453C853
:10135B00FB75CD4075CC9875CB4075CA9843C804C6
:10136B0042C822E59154045391FB7595FF75940B7C
:10137B007593B075923F439104429122C2DE75D9A9
:10138B0004759E01D2DE227590BF75A57F75D507BA
:10139B0022758E147589224388502243B180E5B1A2
:1013AB0030E6FB227597DE7597AD2275E34075E24B
:0F13BB000122C290D2930210548F97228F5A2290
:00000001FF
