:020000040000FA
:10000000020DFBA2AF9200C2AF8F828E83E493FFFA
:10001000A20092AF2275D4FE22323202001AE4F519
:02002000A92213
:070023000200197597A522E8
:10002B00021163A2AF9200C2AF75FF8075EF028F12
:10003B00828E8375B7A575B7F1438F0175FF8075F8
:10004B00EF02EDF0538FFEA20092AF227597A5221F
:10005B00020F7C75E69075F31075A8A875B8102281
:10006B008F18E4F516F517220210D3020218E86474
:10007B0080F8E933E83360110460F0ED33EC337052
:10008B0009E8FCE9FDEAFEEBFF220460DED3EB9FFF
:10009B00EA9EE99DE8C2E78CF0C2F795F0400CE8C8
:1000AB00CCF8E9CDF9EACEFAEBCFFB1201E385D020
:1000BB00F05804700320D5B3E80470075002B2D592
:1000CB0002022292D5EC0460F7E4CCC0E0C398F8AE
:1000DB00603B94186008400DD0E0FB0201FAE4FB92
:1000EB00FAC9FC8028E830E406E4C9FBE4CAFCE862
:1000FB0030E305E4C9CACBFCE854076010F8C3E948
:10010B0013F9EA13FAEB13FBEC13FCD8F130F52FD0
:10011B00C3E49CFCEF9BFFEE9AFEED99FDD0E0FB58
:10012B00EF4E4D4C701222DB0302021FEC2CFCEF46
:10013B0033FFEE33FEED33FDED30E7EB0201FAEF6B
:10014B002BFFEE3AFEED39FDD0E0FB50130BBB005D
:10015B0003020222ED13FDEE13FEEF13FFEC13FC73
:10016B000201FA75F020800E75F010800575F0080D
:10017B007D007E007F003392D530D5031204C0EC96
:10018B00334010EF33FFEE33FEED33FDEC33FCD594
:10019B00F0ED22E5F0247EA2D513CC92E7CDCEFF75
:1001AB0022EDD2E7CD33EC3392D524814006E4FF28
:1001BB00FEFDFC22FCE4CFCECDCC24E0501174FF2D
:1001CB0080EDC3CC13CCCD13CDCE13CECF13CF0438
:1001DB0070F030D5DE0204C0E9D2E7C933E833F85A
:1001EB0092D5EDD2E7CD33EC33FC5002B2D522ECF5
:1001FB0030E7100FBF000C0EBE00080DBD00040B46
:10020B00EB6014A2D5EB13FCED92E7FD2274FFFC1F
:10021B00FDFEFF22E480F8A2D574FF13FC7D80E481
:10022B0080EFE709F608DFFA8046E709F208DFFA04
:10023B00803E88828C83E709F0A3DFFA8032E309E2
:10024B00F608DFFA8078E309F208DFFA807088821B
:10025B008C83E309F0A3DFFA806489828A83E0A3AD
:10026B00F608DFFA805889828A83E0A3F208DFFA66
:10027B00804C80D280FA80C680D4806980F2803333
:10028B00801080A680EA809A80A880DA80E280CAFB
:10029B00803389828A83ECFAE493A3C8C582C8CCE5
:1002AB00C583CCF0A3C8C582C8CCC583CCDFE9DE3F
:1002BB00E7800D89828A83E493A3F608DFF9ECFAD1
:1002CB00A9F0EDFB2289828A83ECFAE0A3C8C582F0
:1002DB00C8CCC583CCF0A3C8C582C8CCC583CCDF42
:1002EB00EADEE880DB89828A83E493A3F208DFF9F4
:1002FB0080CC88F0EF60010E4E60C388F0ED2402D5
:10030B00B4040050B9F582EB2402B4040050AF23BF
:10031B002345822390027D73BB010689828A83E089
:10032B00225002E722BBFE02E32289828A83E493F6
:10033B0022BB010689828A83F0225002F722BBFE80
:10034B0001F322BC000BBE0029EF8DF084FFADF052
:10035B0022E4CCF875F008EF2FFFEE33FEEC33FC04
:10036B00EE9DEC984005FCEE9DFE0FD5F0E9E4CE3A
:10037B00FD22EDF8F5F0EE8420D21CFEADF075F009
:10038B0008EF2FFFED33FD4007985006D5F0F22212
:10039B00C398FD0FD5F0EA22E88FF0A4CC8BF0A424
:1003AB002CFCE98EF0A42CFC8AF0EDA42CFCEA8E3C
:1003BB00F0A4CDA8F08BF0A42DCC3825F0FDE98F5F
:1003CB00F0A42CCD35F0FCEB8EF0A4FEA9F0EB8F56
:1003DB00F0A4CFC5F02ECD39FEE43CFCEAA42DCE23
:1003EB0035F0FDE43CFC2275F008758200EF2FFF21
:1003FB00EE33FECD33CDCC33CCC58233C5829BEDF2
:10040B009AEC99E58298400CF582EE9BFEED9AFDF5
:10041B00EC99FC0FD5F0D6E4CEFBE4CDFAE4CCF9A5
:10042B00A88222B800C1B90059BA002DEC8BF08418
:10043B00CFCECDFCE5F0CBF97818EF2FFFEE33FEE6
:10044B00ED33FDEC33FCEB33FB10D703994004EB9E
:10045B0099FB0FD8E5E4F9FA227818EF2FFFEE336A
:10046B00FEED33FDEC33FCC933C910D7059BE99A7C
:10047B004007EC9BFCE99AF90FD8E0E4C9FAE4CC0D
:10048B00FB2275F010EF2FFFEE33FEED33FDCC3377
:10049B00CCC833C810D7079BEC9AE899400AED9B60
:1004AB00FDEC9AFCE899F80FD5F0DAE4CDFBE4CC3F
:1004BB00FAE4C8F922C3E49FFFE49EFEE49DFDE449
:1004CB009CFC22EB9FF5F0EA9E42F0E99D42F0E89E
:1004DB009C45F022E8600FECC313FCED13FDEE130B
:1004EB00FEEF13FFD8F122E8600FEFC333FFEE33BB
:1004FB00FEED33FDEC33FCD8F122E6FC08E6FD08FB
:10050B00E6FE08E6FF22ECF608EDF608EEF608EF3D
:10051B00F622D083D082E493F608740193F6087424
:10052B000293F608740393F6740473A42582F58280
:10053B00E5F03583F58322E4FBF524F523F522F56D
:10054B0021F525F526F527F528F529F52AFDFCF5E6
:10055B002BF52CF52DF52E7856E664016003020978
:10056B0047F678C4E6702A785AE6FE08E6FF78BCB0
:10057B00A60608A607785CE6FE08E6FF78BEA60688
:10058B0008A6077858E6FE08E6FF78BAA60608A67E
:10059B000779BDE778BF26F52619E71836F525E567
:1005AB0026AE257802CEC313CE13D8F9F52A8E29A1
:1005BB0078BAE6FE08E67802CEC313CE13D8F9FD5F
:1005CB00AC06E4FBEBC3943040030206F4EB25E0EE
:1005DB00245DF9EB25E0245AF8E6FE08E6FF27F543
:1005EB0028EE1937F527E526252AFDE5253529FCC3
:1005FB00D3E5289DE5279C5014C3E526952AFDE5F8
:10060B00259529FCC3E5289DE5279C501978C5083D
:10061B0006E6187001068604D39400EC94FF500391
:10062B0002098D020986EB25E0245DF9D3EF97EEE5
:10063B0019974043AF24AE23AD22AC2178011204AD
:10064B00F2EF4401F524EEF523EDF522ECF521EB69
:10065B0025E0245CF8E6FE08E6252CF52CEE352B80
:10066B00F52BEB25E0245AF8E6FE08E6252EF52EB1
:10067B00EE352DF52D806DEB25E0245DF9EB25E0B6
:10068B00245AF8E6FE08E6C397EE1997503DAF24BF
:10069B00AE23AD22AC2178011204F28F248E238D70
:1006AB00228C21EB25E0245CF8E6FE08E6252EF5EE
:1006BB002EEE352DF52DEB25E0245AF8E6FE08E657
:1006CB00252CF52CEE352BF52B801978C50806E675
:1006DB00187001068606D39400EE94FF50030209AE
:1006EB008D0209860B0B0205CFE509707B78C77667
:1006FB000108F67858E6FE08E6FF78BAA60608A6C3
:10070B0007AF24AE23AD22AC2178C012051178C4FB
:10071B007601E408F608F6AE2BAF2CFC7D1812031D
:10072B004EAC06AD07E4120173E4FBFAF9783F1205
:10073B00007D1201AC78BEA60608A607AE2DAF2E23
:10074B007C007D1812034EAC06AD07E4120173E476
:10075B00FBFAF9783F12007D1201AC78BCA60608B3
:10076B00A607750901020923E50964016003020864
:10077B001F7F02FEFDFCAB0FAA0EA90DA80C1203E6
:10078B00A3E47B64FAF9F812042EC006C007E50B4C
:10079B0025E0FFE50A33AB07FAE4F9F8D007D006FA
:1007AB00C31204CE40030209237858E6FE08E6FF85
:1007BB00252AFDE5293EFC78BAE6FA08E6FBC39D3F
:1007CB00EA9C502CC3EF952AFFEE9529FED3EB9FA5
:1007DB00EA9E401C78C0120505AB24AA23A922A8C7
:1007EB0021C31204CE700978C406750902020923CD
:1007FB007858E6FE08E6FF78BAA60608A607AF24E7
:10080B00AE23AD22AC2178C012051178C47601E479
:10081B00080208D5E5096402600302092378C7F6CC
:10082B0008F67F02FEFDFCAB0FAA0EA90DA80C1259
:10083B0003A3E47B64FAF9F812042EC006C007E5A3
:10084B000B25E0FFE50A33AB07FAE4F9F8D007D044
:10085B0006C31204CE50557858E6FE08E6FF252A4B
:10086B00FDE5293EFC78BAE6FA08E6FBC39DEA9C57
:10087B00503AC3EF952AFFEE9529FED3EB9FEA9EE4
:10088B00402A78C0120505AB24AA23A922A821C3AC
:10089B001204CE701778C406E6C3940A400EE6B471
:1008AB000A0678C87601800478C4760F7858E6FE7D
:1008BB0008E6FF78BAA60608A607AF24AE23AD223A
:1008CB00AC2178C0120511E478C5F608F6AE2BAF53
:1008DB002CFC7D1812034EAC06AD07E4120173E439
:1008EB00FBFAF9783F12007D1201AC78BEA6060820
:1008FB00A607AE2DAF2E7C007D1812034EAC06ADB5
:10090B0007E4120173E4FBFAF9783F12007D120140
:10091B00AC78BCA60608A607E4F50AF50BE52C2572
:10092B002EFFE52B352DFEEF7802C333CE33CED819
:10093B00F9FFE48F0F8E0EF50DF50C22050BE50B71
:10094B007002050AD39496E50A9400401B750A00C1
:10095B00750B98E4F50978C4F678C012051D0000F4
:10096B000000E478BAF608F678C50806E6187001B8
:10097B00068606D39400EE94FF400778C576FF08F1
:10098B007603220214000001180002160000011960
:10099B0000011A0060D500000000000000000000FC
:1009AB00000000000000000000000000000000003C
:1009BB00000000000000000000000000000000002C
:1009CB00000000000000000000000000000000001C
:1009DB00000000000000000000000000000000000C
:1009EB0000000000000000000000000000000000FC
:1009FB0000000000000000000000000000000000EC
:100A0B0000000000000000000000000000000000DB
:100A1B0000000000000000000000000000000000CB
:100A2B0000000000000000000000000000000000BB
:100A3B0000000000000000000000000000000000AB
:100A4B00000000000000000000000000000000009B
:100A5B00000000000000000000000000000000008B
:100A6B0000000000000000000000000000011F005B
:100A7B00011E002064560000000000000000000072
:100A8B00000000000000000000000000000000005B
:100A9B00000000000000000000000000000000004B
:100AAB00000000000000000000000000000000003B
:100ABB00000000000000000000000000000000002B
:100ACB00000000000000000000000000000000001B
:100ADB00000000000000000000000FBA0000000042
:100AEB0000000000000000000000000108000109E8
:100AFB0000020A0000040C000000000078417C009A
:100B0B007F0F1202FDAF4AAE49AD48AC47781012C9
:100B1B0004DFE48F53AF4AAE49AD48AC47780812B7
:100B2B0004DF8F54E54AFFE48F55F552F550E4F599
:100B3B0051E55075F047A42400F582E43400F583A9
:100B4B00E0FFE551C39F4003020C2CE55075F047C5
:100B5B00A42403F582E43400F58375F005E5511206
:100B6B000536E065536003020C21E55075F047A490
:100B7B002404F582E43400F58375F005E551120584
:100B8B0036E065546003020C21E55075F047A42450
:100B9B0005F582E43400F58375F005E55112053651
:100BAB00E065557071E55075F047A42401F582E4BA
:100BBB003400F58375F005E551120536E0FEE5507E
:100BCB0075F047A42402F582E43400F58375F00533
:100BDB00E551120536E07C002400FFEC3EAB07FA32
:100BEB007D05FE12034EEF2BFDEE3AFCC3E5449D53
:100BFB00E5439C5021C3EB9FFFEA9EFED3E5449F48
:100C0B00E5439E4011AF507401A807088002C3331F
:100C1B00D8FC4252800B0551E551640E6003020B68
:100C2B003C0550E55064036003020B39AF52228F31
:100C3B0030E530D394024003020D6C7D007B007ACB
:100C4B000079317E00120B078F4074017E00A830B3
:100C5B00088005C333CE33CED8F9FF7C00EF554067
:100C6B00B50708ECB5060485303022E53075F04742
:100C7B00A42400F582E43400F583E0F540C3941C12
:100C8B00400674F22540F540E54004FFE53075F071
:100C9B0047A42400F582E43400F583EFF0E54075BA
:100CAB00F00E8485F040E533FFE53075F047A42462
:100CBB0001F582E43400F58375F005E54012053645
:100CCB00EFF0E53075F047A42402F582E43400F52B
:100CDB008375F005E540120536E534F0AF3AAE39D1
:100CEB00AD38AC3778101204DFE4E53075F047A46B
:100CFB002403F582E43400F58375F005E540120515
:100D0B0036EFF0AF3AAE39AD38AC3778081204DFB6
:100D1B00E4E53075F047A42404F582E43400F58350
:100D2B0075F005E540120536EFF0E53AFFE4E530E6
:100D3B0075F047A42405F582E43400F58375F005BE
:100D4B00E540120536EFF07F007E1A12120C7B0184
:100D5B007A0079007546007547D57F007E1A12110F
:100D6B001C22E4FF7E012087021E0FE518700AE5A6
:100D7B001A6009151AE4FE8003E4F51AEE6004D23A
:100D8B00938002C293EF6042F51D051CE51C7002B7
:100D9B00051BC3945EE51B9401400E430740E51C05
:100DAB00B45E06E51BB4010122C3E51C9426E51BCA
:100DBB0094024039430780E51CB42606E51BB402B8
:100DCB000122751B02751C2B8023C3E51C942CE59B
:100DDB001B94015013C3E51C9404E51B94004008BD
:100DEB00E4F51BF51CAF1D22E4F51BF51C7F00225F
:100DFB00787FE4F6D8FD7581C8020E420212BCE47E
:100E0B0093A3F8E493A34003F68001F208DFF48088
:100E1B0029E493A3F85407240CC8C333C4540F44D8
:100E2B0020C8834004F456800146F6DFE4800B01B2
:100E3B000204081020408090098EE47E019360BC70
:100E4B00A3FF543F30E509541FFEE493A360010E4A
:100E5B00CF54C025E060A840B8E493A3FAE493A371
:100E6B00F8E493A3C8C582C8CAC583CAF0A3C8C592
:100E7B0082C8CAC583CADFE9DEE780BEE4FFE4F5BA
:100E8B0030E5302FFEEF75F047A42400F582E434F3
:100E9B0000F583E5822530F582E43583F583EEF0AA
:100EAB000530E530B447DA0FBF03D37F007E1A124B
:100EBB00120C7B017A0079007546007547D57F00CF
:100ECB007E1A12111CE4FFE4F530EF75F047A424F1
:100EDB0000F582E43400F583E5822530F582E435B4
:100EEB0083F5837403F00530E530B447DD0FBF03A2
:100EFB00D67B017A0079007536007537D57D007C7D
:100F0B001A02108978C7E66059E4F678C5F608F638
:100F1B00E51975F047A42400F582E43400F583E469
:100F2B00F0FFE51975F047A42400F582E43400F5D1
:100F3B0083E5822FF582E43583F583E4F00FBF4719
:100F4B00E1E4F518FF7E1A12120C7B017A0079008E
:100F5B007546007547D57F007E1A12111C7F010262
:100F6B00137CC3E51794F4E51694014003E4F518DC
:100F7B0022C0E0C0F0C083C082C0D075D000C000DA
:100F8B00C001C002C003C004C005C006C00730D8F2
:100F9B0023C2D885FC1085FB11C3E5119513F515FC
:100FAB00E5109512F514851012851113AF15FE126D
:100FBB000FDD800353D879D007D006D005D004D0ED
:100FCB0003D002D001D000D0D0D082D083D0F0D0CB
:100FDB00E032AD07AC067857E67017C3ED94C8EC5A
:100FEB009400404B30804808A60408A60578577635
:100FFB000122EDAE047802C333CE33CED8F9FFD342
:10100B007859E69F18E69E4010E50825E0245AF82B
:10101B00A60408A60505088006E47857F6F508E54A
:10102B0008C394304009E4F5087856760108F62297
:10103B007B017A0079007536007537D57D007C1AF7
:10104B00121089900000E0C3942A4002E4F0900053
:10105B0047E0C3942A4002E4F090008EE0C3942A48
:10106B004002E4F07F007E1A12120C7B017A0079A9
:10107B00007546007547D57F007E1A02111C8B3117
:10108B008A3289338C348D35E4F538F539C3E5393B
:10109B009537E53895365029E5352539FFE5343553
:1010AB0038FE120003AB310533E533AA327002056B
:1010BB003214F9EF12033C0539E53970D00538804D
:1010CB00CCAB31AA32A93322C0E0C0F0C083C082BE
:1010DB00C0D075D000C000C001C002C003C004C0A6
:1010EB0005C006C00712127F1211D80517E517703D
:1010FB0002051653917FD007D006D005D004D0033C
:10110B00D002D001D000D0D0D082D083D0F0D0E0AC
:10111B00328E418F428B438A4489458541488542B3
:10112B0049E5422547FFE5413546FEC3E5499FE5C5
:10113B00489E5023AB430545E545AA447002054440
:10114B0014F9120323FDAF49AE4812002E0549E5F1
:10115B004970CE054880CA22C0E0C0F0C083C0826F
:10116B00C0D075D000C000C001C002C003C004C015
:10117B0005C006C007120542C2CFD007D006D00566
:10118B00D004D003D002D001D000D0D0D082D083F5
:10119B00D0F0D0E03278C7E66024E4F67F0112137A
:1011AB007CE478C5F608F678317C00FDFB7A007993
:1011BB00BAFE7F0F1202FDAF19120C3A800BC3E57A
:1011CB001794F4E51694014003E4F51822120D6D03
:1011DB008F2FE52F602AE52F64016024E52FB441A2
:1011EB000DE4F5197F0112006B7F0102137CE52FD3
:1011FB00B4C10DE4F5197F0212137C7F0212006B50
:10120B0022A2AF9200C2AF75FF8075EF028F828E64
:10121B008375B7A575B7F1438F0375FF8075EF0223
:10122B00E4F0538FFCA20092AF221213641200154C
:10123B0012134712136B12135B12001E1212F112D0
:10124B00130A12132312135112133C1212D702005A
:10125B005E78C7E6601DE4F678C5F608F6FDFB7A06
:10126B000079BAFE120B07EF30E0087F0112137CF6
:10127B00751A0F22E51F601C051EE51EB40103D273
:10128B009022E51EB42803C29022E51EB45005E45B
:10129B00F51E151F22E51814600D14600D24036054
:1012AB000C14700C02125C0211A0020F0F120E87AD
:1012BB0022121235121372D2AFE4FBFD7F0312130D
:1012CB00791200261200571212A080F8E5D854406C
:1012DB00FFE5F75480FE53D8BF53F77F75DA31EF34
:1012EB0042D8EE42F722AF885388AF758C0B758AC4
:1012FB00D7758D34EF5440FEEF54104E428822E5E3
:10130B00C8540453C8FB75CD4075CC9875CB40754C
:10131B00CA9843C80442C822E59154045391FB7503
:10132B0095FF75940B7593B075923F439104429161
:10133B0022C2DE75D904759E01D2DE227590BF756F
:10134B00A57F75D50722758E147589224388502287
:10135B0043B180E5B130E6FB227597DE7597AD2280
:10136B0075E34075E20122C290D29302103B8F9736
:04137B00228F1F227C
:00000001FF
